{
  "contractName": "Vote",
  "abi": [
    {
      "inputs": [],
      "stateMutability": "nonpayable",
      "type": "constructor"
    },
    {
      "inputs": [
        {
          "internalType": "uint256",
          "name": "",
          "type": "uint256"
        }
      ],
      "name": "tasks",
      "outputs": [
        {
          "internalType": "uint256",
          "name": "id",
          "type": "uint256"
        },
        {
          "internalType": "uint256",
          "name": "eventId",
          "type": "uint256"
        },
        {
          "internalType": "uint256",
          "name": "vote",
          "type": "uint256"
        }
      ],
      "stateMutability": "view",
      "type": "function",
      "constant": true
    },
    {
      "inputs": [],
      "name": "voteCount",
      "outputs": [
        {
          "internalType": "uint256",
          "name": "",
          "type": "uint256"
        }
      ],
      "stateMutability": "view",
      "type": "function",
      "constant": true
    },
    {
      "inputs": [
        {
          "internalType": "uint256",
          "name": "_eventId",
          "type": "uint256"
        },
        {
          "internalType": "uint256",
          "name": "_vote",
          "type": "uint256"
        }
      ],
      "name": "createVote",
      "outputs": [],
      "stateMutability": "nonpayable",
      "type": "function"
    }
  ],
  "bytecode": "0x60806040526000805534801561001457600080fd5b5061002660018061002b60201b60201c565b61011a565b60008081548092919061003d906100d1565b9190505550604051806060016040528060005481526020018381526020018281525060016000805481526020019081526020016000206000820151816000015560208201518160010155604082015181600201559050505050565b7f4e487b7100000000000000000000000000000000000000000000000000000000600052601160045260246000fd5b6000819050919050565b60006100dc826100c7565b91507fffffffffffffffffffffffffffffffffffffffffffffffffffffffffffffffff82141561010f5761010e610098565b5b600182019050919050565b610306806101296000396000f3fe608060405234801561001057600080fd5b50600436106100415760003560e01c80631b468312146100465780638d97767214610062578063c638407114610094575b600080fd5b610060600480360381019061005b919061018a565b6100b2565b005b61007c600480360381019061007791906101ca565b61011f565b60405161008b93929190610206565b60405180910390f35b61009c610149565b6040516100a9919061023d565b60405180910390f35b6000808154809291906100c490610287565b9190505550604051806060016040528060005481526020018381526020018281525060016000805481526020019081526020016000206000820151816000015560208201518160010155604082015181600201559050505050565b60016020528060005260406000206000915090508060000154908060010154908060020154905083565b60005481565b600080fd5b6000819050919050565b61016781610154565b811461017257600080fd5b50565b6000813590506101848161015e565b92915050565b600080604083850312156101a1576101a061014f565b5b60006101af85828601610175565b92505060206101c085828601610175565b9150509250929050565b6000602082840312156101e0576101df61014f565b5b60006101ee84828501610175565b91505092915050565b61020081610154565b82525050565b600060608201905061021b60008301866101f7565b61022860208301856101f7565b61023560408301846101f7565b949350505050565b600060208201905061025260008301846101f7565b92915050565b7f4e487b7100000000000000000000000000000000000000000000000000000000600052601160045260246000fd5b600061029282610154565b91507fffffffffffffffffffffffffffffffffffffffffffffffffffffffffffffffff8214156102c5576102c4610258565b5b60018201905091905056fea264697066735822122008b565d4597debdde75764b23a426994f44a619c919415cc9242cc26232e47b264736f6c634300080a0033",
  "immutableReferences": {},
  "source": "pragma solidity >=0.4.22 <0.9.0;\r\n\r\ncontract Vote{\r\n\r\n    uint public voteCount = 0; // public is used to read this variable from the blockchain. Featuer of solidity\r\n    //taskCount is written into storage\r\n\r\n    struct Votes { \r\n        uint id;// a basic struct to define user defined datatype \r\n        uint eventId;\r\n        uint vote;\r\n    } \r\n\r\n    //creating a state variable tasks.\r\n    //mapping is a datatype \r\n    //it is like a hash, dict \r\n\r\n    mapping(uint => Votes) public tasks; //mapping -> key value pair \r\n    //if we access task we are essentially accesing the Task structure.\r\n\r\n    constructor() public{\r\n        createVote(1 ,1);\r\n\r\n    }\r\n\r\n    function createVote( uint _eventId , uint _vote) public {\r\n        voteCount++;\r\n        tasks[voteCount] = Votes(voteCount , _eventId , _vote );\r\n\r\n    }\r\n\r\n\r\n}",
  "sourcePath": "C:\\Users\\runaa\\Desktop\\ece651_repo\\ece651-candidvote\\contracts\\Vote.sol",
  "compiler": {
    "name": "solc",
    "version": "0.8.10+commit.fc410830.Emscripten.clang"
  },
  "schemaVersion": "3.4.4",
  "updatedAt": "2022-03-31T16:51:02.371Z",
  "networkType": "ethereum",
  "devdoc": {
    "kind": "dev",
    "methods": {},
    "version": 1
  },
  "userdoc": {
    "kind": "user",
    "methods": {},
    "version": 1
  }
}